:10E000003BC0000064C0000062C0000060C00000AF
:10E010005EC000005CC000005AC0000058C0000094
:10E0200056C0000054C0000052C0000050C00000A4
:10E030004EC00000E9C000004AC0000048C0000017
:10E0400046C0000044C0000042C0000040C00000C4
:10E050003EC000003CC000003AC0000038C00000D4
:10E0600036C0000034C0000032C0000030C00000E4
:10E0700002CAFEDD8000000011241FBECFEFD0E1F8
:10E08000DEBFCDBF14BE88E10FB6F8948093600068
:10E09000109260000FBE10926E0010926F001092EE
:10E0A000700011E0A0E0B1E0ECE1F9EF02C00590F2
:10E0B0000D92A831B107D9F718E0A8E1B1E001C08D
:10E0C0001D92A636B107E1F70ED00C94267C00C055
:10E0D0001F920F920FB60F9211245B980F900FBEF4
:10E0E0000F901F90189581E085BF82E085BF80EB7F
:10E0F00084B98BE08AB95B9AF89488E10FB6F894FA
:10E1000080936000109260000FBE78942FE088E149
:10E1100090E00FB6F894A895809360000FBE20930E
:10E120006000A8958ED00E94CD7B599A0E94D47B26
:10E13000C0E0D0E0A8950E94207C8091780181FF0A
:10E14000F9CFF894FE010995F5CFFB01982F929530
:10E150009F70292F205D2A3310F4208302C0995C20
:10E1600090838F70982F905D9A3310F4918302C042
:10E17000895C818382E00895E0E0F0E02FEF3FEFDB
:10E1800084912827822F82958227082E869586954E
:10E190008025082E869580258770022E232F869550
:10E1A00007948795302D28270694879530252827B2
:10E1B0003196E11580EEF80719F7C901089549D3A2
:10E1C0004CD00E94D17B6DD1E9C5E1E8F0E08081BF
:10E1D0008C7F8083808184608083A0E8B0E08C9114
:10E1E0008C7F8C9380818860808380818F7E808308
:10E1F00081EE94E09093890080938800EFE6F0E050
:10E2000080818260808308951F920F920FB60F92D3
:10E2100011248F939F9381E0809365088091790109
:10E22000982F9F5F923318F49093790103C0815324
:10E23000809379019F918F910F900FBE0F901F9047
:10E2400018952C9A80E58CBD81E08DBD08958EBD1A
:10E250000DB407FEFDCF8EB5089546E050E060E7AF
:10E2600070EE8EE791E00E94287C80EC98EA909313
:10E27000A1018093A00121E039E63093A30120930E
:10E28000A2012FEF3FEF30939D0120939C012FEFD0
:10E2900030E030939F0120939E01909399018093E9
:10E2A000980187E191E090939B0180939A010895F2
:10E2B0002C988AE3CCDF80E0CADF2C9A0895CF93B4
:10E2C000C82F2C988AE7C3DF8C2FC1DF2C9ACF91FF
:10E2D00008952C988FEFBBDF8FE39FE10197F1F753
:10E2E00000C000002C9A0895CF93C82F40EA63E045
:10E2F0008FE109D06C2F637040E88FE104D0C093A8
:10E300001B01CF910895A1E0B0E0E9E8F1E70C949A
:10E31000637C062F182F1F71E12FF0E07B9794F498
:10E32000282F2076822F90E025E0959587952A95D5
:10E33000E1F7E0911B01F0E08E179F0719F0498388
:10E34000D3DF49812C98842F812B81DF802F7FDFC1
:10E350002C9A2196E4E00C947F7CCF93DF93D62F08
:10E36000C82FCF714C2F50E04B31510584F4282F2A
:10E370002076822F90E035E0959587953A95E1F7E4
:10E3800040911B0150E08417950709F0ADDF2C98F0
:10E390008C2F80645CDF8D2F5ADF2C9ADF91CF9118
:10E3A0000895A1E0B0E0E7EDF1E70C94657C682FFB
:10E3B00082E09983D2DF9981692F83E0CEDF2196B5
:10E3C000E2E00C94817CA1E0B0E0E9EEF1E70C948E
:10E3D000657C682F80E09983C0DF9981692F81E097
:10E3E000BCDF2196E2E00C94817CCF93DF93C82FB1
:10E3F000D82FDF712D2F30E02B31310584F4282FF9
:10E400002076822F90E045E0959587954A95E1F733
:10E4100040911B0150E08417950709F065DF2C98A7
:10E420008D2F15DF80E013DFC7FF02C080E00FDF14
:10E430002C9ADF91CF910895A1E0B0E0E2E2F2E7FB
:10E440000C94647C162F682F84ED798386DF612F0E
:10E4500086ED83DF7981672F87ED7FDF8AEEC5DF69
:10E4600080FDFCCF2196E3E00C94807CCF93682F55
:10E4700084ED73DF40E861E082ED45DF8AEEB5DFD1
:10E4800080FDFCCF40EA61E082ED3DDF88EDADDF4D
:10E49000C82F89EDAADF382F20E02C2BC901CF919E
:10E4A00008958FEF8093180114DF60E088E055DF56
:10E4B00060E089E052DF6FEF8AE04FDF6FE08BE0D2
:10E4C0004CDF60E084E049DF60E185E046DF60E04A
:10E4D0008CE043DF60E08DE040DF60E08EE03DDF18
:10E4E00060E08FE03ADF10927B0110927A0140EAFF
:10E4F00060E881EC08DF40E86DE080EC04DF40E894
:10E5000062E382EC00DF60E070E080E095DF80E0B5
:10E51000ADDF90FF06C040E861E082ECF4DE62E12E
:10E5200005C040EA61E082ECEEDE65E184EC15DFD7
:10E5300062E186EC12DF6CE087EC0FDF60EE8AECC4
:10E540000CDF65E08BEC09DF60917E0184EE05DF76
:10E5500060917F0185EE01DF6091800182EEFDDE3A
:10E560006091810183EEF9DE6091820180EEF5DE3B
:10E570006091830181EEF1DE63E888E3EEDE62E123
:10E580007CE084E159DF6BED8BE1E7DE62E170E076
:10E5900082E152DF40E864E08FE1B5DE40E860E808
:10E5A0008EE1B1DE10921801089580911801811159
:10E5B00015C082EC1ADF8273823331F080911A0128
:10E5C0008F5F80931A016DDF80EC0FDF8D3031F0AB
:10E5D000809119018F5F8093190163CF0895A4E0A2
:10E5E000B0E0E5EFF2E70C94617C89E3FEDE88237E
:10E5F00009F47DC080917A0190917B01E4DE58DEC0
:10E60000182F56DE382F20E0212B30937B012093EA
:10E610007A018E010F5F1F4F7E0125E0E20EF11C93
:10E6200047DEF80181938F01EE15FF05C9F7898157
:10E630009A818C01045011091A83098342978F3CF7
:10E64000954038F02EDF53C033DEF70181937F0110
:10E6500004C094EAE92E91E0F92EC701845A914052
:10E660008017910788F310937D0100937C018091BE
:10E67000B0019091B1019827892798278115F8E07A
:10E680009F0759F08630984091F49BD380917C018C
:10E6900090917D01892B59F009C081E03DD1809195
:10E6A0007C0190917D01892B11F054D45AD0609156
:10E6B0007A0170917B01CB0101978115904128F07F
:10E6C0006FEF8CE04ADE6FE00CC061508CE045DEFD
:10E6D00060917A0170917B0161507109672F770F0A
:10E6E000770B8DE03ADE40E860E48EE10CDE2496A4
:10E6F000E6E00C947D7CCF9389E377DE882379F183
:10E700008CE173DEC82F40EA60E88BE1FCDDC4FFDA
:10E7100009C083E1ABDE81E1A9DE92FF02C0589A15
:10E7200001C05898C3FF08C040EA68E08CE1EBDD07
:10E7300040EA6AE08DE1E7DD52DF10929701C0FF09
:10E7400004C040EA61E08CE1DEDDC1FF04C040EAC4
:10E7500062E08CE1D8DD40E860E88BE1D4DDCF9168
:10E760000895CF93DF93C4E68FE13FDE83FD04C0BD
:10E77000CC2309F435C002C0C150B0F760E084E09A
:10E78000ECDD60E185E0E9DD60917C0186E0E5DDBE
:10E7900080917C0190917D01905F692F87E0DDDDA4
:10E7A00080E090E1FEDD80E08ADDC4EAD1E002C0D5
:10E7B000899185DD9E01245A314080917C019091A0
:10E7C0007D0128173907A0F340E860E88FE19BDD61
:10E7D00040EA60E88FE197DD40E868E08FE193DD93
:10E7E000DF91CF9108959C0141505109460F571F69
:10E7F000FB010EC0B081A0E08181BD01680F711DD9
:10E80000260F371F2617370710F42F5F3F4F32961A
:10E81000E417F50778F3E417F50749F4908180E0F1
:10E82000280F391F2817390710F42F5F3F4FC901F0
:10E83000089544E150E062EB71E080E090E0D3DFC6
:10E84000009719F0382F292F02C02FEF3FEFC90191
:10E85000089580E094E090938C0180938B0108955B
:10E860000F931F93CF93DF9320918B0130918C01F5
:10E870002F5F3F4F21151DE7310710F020E030E1F9
:10E88000D22FC32FA8E8B7E0FD01008111810C173A
:10E890001D0771F3BD9618E0E936F107B1F7309323
:10E8A0008C0120938B0120E030E0ED91FC911197D9
:10E8B000EF2B51F4ADE2A29FF001A39FF00D1124C4
:10E8C000EC57F84F51F422C02F5F3F4F9D962530F3
:10E8D000310559F7E0E0F0E019C0D583C4837783B0
:10E8E0006683009729F410821182128213820CC071
:10E8F000DC012D913C9111973183208312968D91EB
:10E900009C9113979383828351874087CF01DF9136
:10E91000CF911F910F910895A0E0B0E0E1E9F4E7F5
:10E92000CEC7843009F422C12AED31E0309394013E
:10E93000209393013093890120938801853019F544
:10E94000E0918D01F0918E0184819581892B09F4EC
:10E9500085C110929601109295018EEC91E09093F2
:10E960009401809393019093890180938801109280
:10E9700083071092820710927D0110927C0188E03B
:10E9800080938A01EDC08091B201853409F066C19F
:10E990002091B401D22F40E0C42F8091B501C80F5F
:10E9A000D11D80917C0190917D018C179D0708F409
:10E9B00055C1D0937D01C0937C018091B8018F73C4
:10E9C00009F04CC18091B901811148C18091BB010E
:10E9D000813189F52091C2013091C3012F3F8FEF22
:10E9E000380739F48091C4019091C501019609F46A
:10E9F00046C080919C0190919D0180959095409199
:10EA0000A0015091A101842B952B2817390799F467
:10EA100080919E0190919F01809590952091A201F7
:10EA20003091A301822B932B2091C4013091C50119
:10EA30002817390721F18091A0019091A10120911F
:10EA4000C2013091C3012817390759F44091C4011C
:10EA50005091C5012091A2013091A30142175307A3
:10EA600051F0892B09F0FAC08091A2019091A30185
:10EA7000892B09F0F3C0DDDE019609F0EFC06C9739
:10EA8000D0937D01C0937C0188E398E090938E0140
:10EA900080938D01C090C801D090C9014091C601FA
:10EAA0005091C7016091840170918501A091860108
:10EAB000B0918701C091BE01D091BF010091C0010A
:10EAC0001091C1012FC084819581009731F1C81642
:10EAD000D90619F586819781009719F048175907CB
:10EAE000E1F4808191818617970729F4E280F38011
:10EAF000EA16FB0601F18F3F2FEF920731F4E28017
:10EB0000F3802FEFE216F206B1F0C817D90729F407
:10EB1000828193810817190771F0BD97F0938E01D8
:10EB2000E0938D01E0918D01F0918E0187E0E43852
:10EB3000F80748F693C0109296011092950182E072
:10EB400080938A018EEC91E09093940180939301DD
:10EB50009093890180938801109283071092820715
:10EB60000084F185E02D309709F0099580918207A6
:10EB700090918307009709F471C09C01245E3F4F78
:10EB800030937D0120937C013093B4012093B50133
:10EB900020E42093BA0121E12093BB010896982735
:10EBA000892798279093CB018093CA011092CD01B9
:10EBB0001092CC01E0918D01F0918E0184819581BC
:10EBC0009093C7018093C601868197819093C90174
:10EBD0008093C8018091A0019091A1019093BF0101
:10EBE0008093BE018091A2019091A3019093C101F5
:10EBF0008093C001808191819093C3018093C20171
:10EC0000828193819093C5018093C4018EEC91E041
:10EC1000909394018093930185E48093B2011092C4
:10EC2000B3011092B9011092B80180911C0190912A
:10EC30001D01019690931D0180931C019093B601D4
:10EC40008093B7011092BD011092BC01F2DD809556
:10EC500090959093BD018093BC0104C010927D01FA
:10EC600010927C0110928A01CDB7DEB7E8E043C66E
:10EC7000161617067CF46093820770938307209121
:10EC80008801309189018217930721F0AB01BC0103
:10EC9000C901E7C508951F93CF93DF93C0E0D0E08B
:10ECA0001DE21C9FC0011D9F900D11248C57984F91
:10ECB00090938E0180938D0185E02EDE80917C0102
:10ECC00090917D01892B11F045D14BDD2196C53006
:10ECD000D10539F7DF91CF911F910895CF93DF933D
:10ECE0006091C0017091C101E091C201F091C30136
:10ECF00080E090E0ABE0A89FE001A99FD00D112437
:10ED0000C25EDE4F488159814115510589F02A8143
:10ED10003B812115310561F06417750749F4E2174D
:10ED2000F30731F4DE01149686E0EAEBF1E02EC041
:10ED3000019688309105F9F680E090E04BE0489F1D
:10ED4000E001499FD00D1124C25EDE4F2881398138
:10ED5000232B21F42A813B81232B31F0019688302B
:10ED6000910569F7CEE1D1E08091C0019091C10198
:10ED7000A091C201B091C301FE0181939193A1932F
:10ED8000B1939F0186E0EAEBF1E0D90101900D9289
:10ED90008A95E1F71A86DF91CF91089580E090E09F
:10EDA0002BE0289FF001299FF00D1124E25EFE4F19
:10EDB000108211821282138201968830910589F7A0
:10EDC000089580917C0190917D0110927D011092B7
:10EDD0007C018A9708F408958091B8019091B90157
:10EDE000811521E0920729F08115924009F088C031
:10EDF00070C02091CA013091CB018091A001909107
:10EE0000A1012817390709F07BC02091CC0130916E
:10EE1000CD018091A2019091A3012817390709F033
:10EE20006FC05CDF80E092E09093B9018093B801FD
:10EE300086E0EAEBF1E0A4ECB1E001900D928A9556
:10EE4000E1F786E0EEE7F1E0AAEBB1E001900D9288
:10EE50008A95E1F786E0EEE7F1E0AAEAB1E00190F9
:10EE60000D928A95E1F786E0E4ECF1E0A4EAB1E0E6
:10EE700001900D928A95E1F78091CA019091C001AD
:10EE80009093CA018093C0018091CB019091C10100
:10EE90009093CB018093C1018091CC019091C201EC
:10EEA0009093CC018093C2018091CD019091C301D8
:10EEB0009093CD018093C30188E096E09093B101D7
:10EEC0008093B0018AE290E090937D0180937C0171
:10EED00008952091CA013091CB018091A0019091B9
:10EEE000A1012817390761F42091CC013091CD019F
:10EEF0008091A2019091A3012817390709F4EECE61
:10EF000008951F93CF93DF93EC014881598120E04E
:10EF100030E01BE0129FF001139FF00D1124E25E20
:10EF2000FE4F608171814617570741F4EC01AA81B9
:10EF3000BB8162817381A617B70739F02F5F3F4FFE
:10EF40002830310539F7E0E0F0E0CF01DF91CF91D3
:10EF50001F910895A4E0B0E0EFEAF7E7B6C480910E
:10EF6000C201805E8031B0F481E08093A4011092F0
:10EF7000A5018EE58093A6018091C3018F778093D0
:10EF8000A7018091C4018093A8018091C50180935D
:10EF9000A901CEC02091C2013091C301E091A0012E
:10EFA000F091A10160919C0170919D01AB01409590
:10EFB00050954E2B5F2B2417350799F480919E01B5
:10EFC00090919F01809590954091A2015091A3014D
:10EFD000842B952B4091C4015091C50148175907C6
:10EFE00051F02F3F4FEF340751F48091C4019091BD
:10EFF000C501019621F486E0E6E0F1E093C0CF017F
:10F000008227932786239723892B91F44091C4016B
:10F010005091C5018091A2019091A3018427952769
:10F0200060919E0170919F0186239723892B69F03F
:10F0300080919801909199019A83898380919A0196
:10F0400090919B019C838B8304C03A8329835C83CA
:10F050004B83CE01019655DF009709F060C046E072
:10F0600050E06FEF70E084EA91E004D426E0E4EC35
:10F07000F1E0DF01422F1D924A95E9F7EEE7F1E05A
:10F08000AAEAB1E0822F01900D928A95E1F7EEE7AE
:10F09000F1E0AAEBB1E0822F01900D928A95E1F7A1
:10F0A00089819A819093CB018093CA018B819C8145
:10F0B0009093CD018093CC018091A0019091A1010A
:10F0C0009093C1018093C0018091A2019091A3010E
:10F0D0009093C3018093C20180E091E09093B901C5
:10F0E0008093B8019093B3018093B20188E090E0DF
:10F0F0009093B5018093B4012093B60184E080938E
:10F10000B70188E096E09093B1018093B0018AE264
:10F1100090E090937D0180937C0181E022C0FC010E
:10F12000349686E0A4EAB1E001900D928A95E1F769
:10F1300086E0EEE7F1E0AAEAB1E001900D928A954F
:10F14000E1F788E090E09093B1018093B001809165
:10F150007C0190917D010E9690937D0180937C01BE
:10F1600080E02496E2E0CDC3A0E0B0E0E9EBF8E770
:10F17000A1C380918A01E0918D01F0918E0181FF00
:10F180001BC084819581843A9742A1F4E4E8F7E0BA
:10F1900084819581843A974241F4868197818115D3
:10F1A000954419F41582148205C0BD9688E0E536B1
:10F1B000F80771F77CD1E5C0828583FFE2C083A5A3
:10F1C00094A5009711F00197D3C00091930110917D
:10F1D0009401809178018B7F8093780180E091E0A9
:10F1E000F80191838083C0E0D0E0E12CF12C2DE286
:10F1F000B22E3EE2932E43E6A42E52E7852E92C015
:10F20000853209F087C084858D34D9F4F801EC0F7C
:10F21000FD1FB28221969EE7C92E91E0D92EBE0134
:10F220006E5F7F4F600F711FF60181916F010E9429
:10F23000A570C80FD11DF4E8CF16F1E0DF0679F70D
:10F2400065C01A969C911A9794FF60C0833631F17D
:10F2500020F4833409F05AC042C0853609F445C011
:10F260008D3609F053C0F801EC0FFD1FB2822196D4
:10F270008EE7C82E81E0D82EBE016E5F7F4F600FF3
:10F28000711FF60181916F010E94A570C80FD11DF9
:10F29000F4E8CF16F1E0DF0679F738C0F801EC0F9B
:10F2A000FD1FB2826E012FEFC21AD20A0E94BC70FB
:10F2B000782EBE016D5F7F4F600F711F892F0E94F6
:10F2C000A570C80ED11CB6016E5F7F4F600F711F15
:10F2D000872D0E94A570E601C80FD11D17C080912F
:10F2E000780184608093780111C0F801EC0FFD1F54
:10F2F0009282A3828482A5822496FD01EE0DFF1DD9
:10F3000083859FEFE91AF90A8111F7CFE2E0EE0E4B
:10F31000F11C08C0F801EC0FFD1F82832196FFEF5E
:10F32000EF1AFF0AA0918D01B0918E01FD01EE0D43
:10F33000FF1D838581111FC0F801EC0FFD1F128294
:10F340008FE6838383E6848384E7858395E69683CB
:10F3500087831086BE01605F7F4F809193019091FB
:10F36000940186DCE0918D01F0918E0185E090E0C2
:10F3700094A783A706C020E2E216F10408F440CF68
:10F38000DBCFCDB7DEB7EDE0B1C2A4E0B0E0EAEC90
:10F39000F9E798C280910201909103019A838983D1
:10F3A00080910401909105019C838B8344EB58E785
:10F3B00060E070E0CE01019653DAFC01009709F499
:10F3C00073C080E095E4958384838285877F8287FC
:10F3D00080EC98EA9A83898381E095E69C838B830D
:10F3E00044EB58E760E075E4CE01019639DA009706
:10F3F00009F45AC0FC01228528602287ECE0F1E084
:10F4000030E010C031962C91253261F420812336F2
:10F4100041F018F4233431F404C0253611F02D36B0
:10F4200009F431E0DF012081211123C0FF24F3948E
:10F43000311101C0F12CFC012285F0FA24F9228758
:10F44000DC011B9620E2ECE0F1E001900D922A95A0
:10F45000E1F7FC0112A604EA17E21583048344EBEA
:10F4600058E760E070E0CE010196FAD9009731F4D8
:10F470001BC021E0EB32F20729F6D8CFFC01228530
:10F4800014A613A62C7F2460F0FA24F92287DC014D
:10F490001B9620E2ECE0F1E001900D922A95E1F755
:10F4A000FC0112A6158304832496E5E027C2A0E0A0
:10F4B000B0E0ECE5FAE7FEC1A0918D01B0918E01BC
:10F4C000E0919301F09194017C97848595858D93CB
:10F4D0009C93E0918D01F0918E01C0919301D091A8
:10F4E0009401DE015C971E968D919C911F979383EA
:10F4F000828354968D919C915597978386838881BA
:10F5000099819827892798278230910521F00397C0
:10F5100009F0ECC009C0828514A613A68E7F8D7FEA
:10F5200082871B821A82D6C01092010110920001BC
:10F53000828580FDDBC0AA81BB817A2F6B2F83A5DA
:10F5400094A56817790708F4D1C06817790709F4FA
:10F55000C1C001968617970708F4C8C080917C0146
:10F5600090917D0104974FEF07C09E01280F391F2E
:10F57000D90114964C9301968115B2E09B07A8F32C
:10F58000828584FF09C080917C0190917D01843047
:10F59000924008F470C093C0DB01A158BF4FBA2F4E
:10F5A000AA27BB0F80E090E043E0B42EAA24A394E6
:10F5B00055E0952E61E1862E9C012A0F3B1FA90183
:10F5C00060E070E05F5F6F4F7F4F4130504E6105EC
:10F5D000710508F049C0BC016C5F7F4F6C0F7D1F47
:10F5E0007B0140E050E0F701D1907F01FA01E20F8A
:10F5F000F31FE491DE1207C04F5F5F4F4115F1E04A
:10F600005F0789F731C07FB6F894F999FECFF90109
:10F61000B0925700E89507B600FCFDCF40E050E0FF
:10F62000FB01E40FF51FF0806A01C20ED31E1181A9
:10F6300000E0F801EF0DF11D7F01F6010701A09236
:10F640005700E89511244E5F5F4F4115F1E05F07C9
:10F6500039F7F90190925700E89507B600FCFDCF05
:10F6600080925700E8957FBE93958115F2E09F0741
:10F6700009F0A2CF88CFE0918D01F0918E018285B3
:10F68000826082878091780182FF13C00E94BC70E3
:10F690004C8150E09C0133274217530739F44D81C8
:10F6A00050E0292F33274217530719F08D839E838B
:10F6B0001DC081E090E09093010180930001E091F2
:10F6C0008D01F0918E018A819B8198278927982747
:10F6D00094A783A780E094E09983888364E070E036
:10F6E0008091930190919401C3DA53C080E095E03A
:10F6F000998388831B821A821C8267E070E0809164
:10F70000930190919401B4DAC0918D01D0918E0152
:10F710008A8584FF3EC08E01055F1F4F44EB58E78A
:10F7200060E075E4CE019CD8009799F1DC011A964F
:10F730002C911A9728602F7E1A962C931A971B9655
:10F7400020E2F80101900D922A95E1F7FC0112A642
:10F7500084EAE82E87E2F82EF582E48244EB58E74B
:10F7600060E070E0CE017CD8EC01009791F08A85D2
:10F770001CA61BA68C7F84608F7E8A87DE011B9669
:10F7800080E2F80101900D928A95E1F71AA6FD82B8
:10F79000EC82CDB7DEB7EDE0A9C00E94DF700C941B
:10F7A000E5700E945172F1CD08958091650888231B
:10F7B00009F445C010926508809176019091770117
:10F7C000019690937701809376016AE070E059D0BA
:10F7D000892B09F460DA809176019091770162E3D8
:10F7E00070E04FD0892B11F40E94D5728091760180
:10F7F0009091770164EF71E044D0892B21F410924D
:10F8000077011092760110929701E0910001F0913A
:10F8100001013097A1F03197F0930101E0930001CD
:10F82000309769F4F89481E085BF15BE88E10FB682
:10F83000F89480936000109260000FBE09950895BF
:10F840000E947B73A895B1DFA8950895F89464C0D1
:10F85000FB01DC0102C005900D9241505040D8F7E9
:10F860000895FB01DC0102C001900D92415050400F
:10F87000D8F70895DC0101C06D9341505040E0F786
:10F880000895AA1BBB1B51E107C0AA1FBB1FA617E7
:10F89000B70710F0A61BB70B881F991F5A95A9F739
:10F8A00080959095BC01CD0108952F923F924F9283
:10F8B0005F926F927F928F929F92AF92BF92CF9200
:10F8C000DF92EF92FF920F931F93CF93DF93CDB709
:10F8D000DEB7CA1BDB0B0FB6F894DEBF0FBECDBF81
:10F8E00009942A88398848885F846E847D848C8452
:10F8F0009B84AA84B984C884DF80EE80FD800C815B
:10F900001B81AA81B981CE0FD11D0FB6F894DEBF3D
:0CF910000FBECDBFED010895F894FFCFAD
:10F91C00FA00FFFFFFFFFFFFFFFFFFFF627261694D
:08F92C006E302E62696E0000CE
:040000030000E00019
:00000001FF
